{
  "contractName": "AnkarNFT",
  "abi": [
    {
      "anonymous": false,
      "inputs": [
        {
          "indexed": true,
          "internalType": "address",
          "name": "owner",
          "type": "address"
        },
        {
          "indexed": true,
          "internalType": "address",
          "name": "approved",
          "type": "address"
        },
        {
          "indexed": true,
          "internalType": "uint256",
          "name": "tokenId",
          "type": "uint256"
        }
      ],
      "name": "Approval",
      "type": "event"
    },
    {
      "anonymous": false,
      "inputs": [
        {
          "indexed": true,
          "internalType": "address",
          "name": "owner",
          "type": "address"
        },
        {
          "indexed": true,
          "internalType": "address",
          "name": "operator",
          "type": "address"
        },
        {
          "indexed": false,
          "internalType": "bool",
          "name": "approved",
          "type": "bool"
        }
      ],
      "name": "ApprovalForAll",
      "type": "event"
    },
    {
      "anonymous": false,
      "inputs": [
        {
          "indexed": true,
          "internalType": "address",
          "name": "previousOwner",
          "type": "address"
        },
        {
          "indexed": true,
          "internalType": "address",
          "name": "newOwner",
          "type": "address"
        }
      ],
      "name": "OwnershipTransferred",
      "type": "event"
    },
    {
      "anonymous": false,
      "inputs": [
        {
          "indexed": true,
          "internalType": "address",
          "name": "from",
          "type": "address"
        },
        {
          "indexed": true,
          "internalType": "address",
          "name": "to",
          "type": "address"
        },
        {
          "indexed": true,
          "internalType": "uint256",
          "name": "tokenId",
          "type": "uint256"
        }
      ],
      "name": "Transfer",
      "type": "event"
    },
    {
      "inputs": [
        {
          "internalType": "address",
          "name": "to",
          "type": "address"
        },
        {
          "internalType": "uint256",
          "name": "tokenId",
          "type": "uint256"
        }
      ],
      "name": "approve",
      "outputs": [],
      "stateMutability": "nonpayable",
      "type": "function"
    },
    {
      "inputs": [
        {
          "internalType": "address",
          "name": "owner",
          "type": "address"
        }
      ],
      "name": "balanceOf",
      "outputs": [
        {
          "internalType": "uint256",
          "name": "",
          "type": "uint256"
        }
      ],
      "stateMutability": "view",
      "type": "function"
    },
    {
      "inputs": [
        {
          "internalType": "uint256",
          "name": "tokenId",
          "type": "uint256"
        }
      ],
      "name": "getApproved",
      "outputs": [
        {
          "internalType": "address",
          "name": "",
          "type": "address"
        }
      ],
      "stateMutability": "view",
      "type": "function"
    },
    {
      "inputs": [
        {
          "internalType": "address",
          "name": "owner",
          "type": "address"
        },
        {
          "internalType": "address",
          "name": "operator",
          "type": "address"
        }
      ],
      "name": "isApprovedForAll",
      "outputs": [
        {
          "internalType": "bool",
          "name": "",
          "type": "bool"
        }
      ],
      "stateMutability": "view",
      "type": "function"
    },
    {
      "inputs": [],
      "name": "name",
      "outputs": [
        {
          "internalType": "string",
          "name": "",
          "type": "string"
        }
      ],
      "stateMutability": "view",
      "type": "function"
    },
    {
      "inputs": [],
      "name": "owner",
      "outputs": [
        {
          "internalType": "address",
          "name": "",
          "type": "address"
        }
      ],
      "stateMutability": "view",
      "type": "function"
    },
    {
      "inputs": [
        {
          "internalType": "uint256",
          "name": "tokenId",
          "type": "uint256"
        }
      ],
      "name": "ownerOf",
      "outputs": [
        {
          "internalType": "address",
          "name": "",
          "type": "address"
        }
      ],
      "stateMutability": "view",
      "type": "function"
    },
    {
      "inputs": [],
      "name": "renounceOwnership",
      "outputs": [],
      "stateMutability": "nonpayable",
      "type": "function"
    },
    {
      "inputs": [
        {
          "internalType": "address",
          "name": "from",
          "type": "address"
        },
        {
          "internalType": "address",
          "name": "to",
          "type": "address"
        },
        {
          "internalType": "uint256",
          "name": "tokenId",
          "type": "uint256"
        }
      ],
      "name": "safeTransferFrom",
      "outputs": [],
      "stateMutability": "nonpayable",
      "type": "function"
    },
    {
      "inputs": [
        {
          "internalType": "address",
          "name": "from",
          "type": "address"
        },
        {
          "internalType": "address",
          "name": "to",
          "type": "address"
        },
        {
          "internalType": "uint256",
          "name": "tokenId",
          "type": "uint256"
        },
        {
          "internalType": "bytes",
          "name": "_data",
          "type": "bytes"
        }
      ],
      "name": "safeTransferFrom",
      "outputs": [],
      "stateMutability": "nonpayable",
      "type": "function"
    },
    {
      "inputs": [
        {
          "internalType": "address",
          "name": "operator",
          "type": "address"
        },
        {
          "internalType": "bool",
          "name": "approved",
          "type": "bool"
        }
      ],
      "name": "setApprovalForAll",
      "outputs": [],
      "stateMutability": "nonpayable",
      "type": "function"
    },
    {
      "inputs": [
        {
          "internalType": "bytes4",
          "name": "interfaceId",
          "type": "bytes4"
        }
      ],
      "name": "supportsInterface",
      "outputs": [
        {
          "internalType": "bool",
          "name": "",
          "type": "bool"
        }
      ],
      "stateMutability": "view",
      "type": "function"
    },
    {
      "inputs": [],
      "name": "symbol",
      "outputs": [
        {
          "internalType": "string",
          "name": "",
          "type": "string"
        }
      ],
      "stateMutability": "view",
      "type": "function"
    },
    {
      "inputs": [
        {
          "internalType": "uint256",
          "name": "tokenId",
          "type": "uint256"
        }
      ],
      "name": "tokenURI",
      "outputs": [
        {
          "internalType": "string",
          "name": "",
          "type": "string"
        }
      ],
      "stateMutability": "view",
      "type": "function"
    },
    {
      "inputs": [
        {
          "internalType": "address",
          "name": "from",
          "type": "address"
        },
        {
          "internalType": "address",
          "name": "to",
          "type": "address"
        },
        {
          "internalType": "uint256",
          "name": "tokenId",
          "type": "uint256"
        }
      ],
      "name": "transferFrom",
      "outputs": [],
      "stateMutability": "nonpayable",
      "type": "function"
    },
    {
      "inputs": [
        {
          "internalType": "address",
          "name": "newOwner",
          "type": "address"
        }
      ],
      "name": "transferOwnership",
      "outputs": [],
      "stateMutability": "nonpayable",
      "type": "function"
    },
    {
      "inputs": [],
      "name": "initialize",
      "outputs": [],
      "stateMutability": "nonpayable",
      "type": "function"
    },
    {
      "inputs": [
        {
          "internalType": "string",
          "name": "_newBaseURI",
          "type": "string"
        }
      ],
      "name": "setBaseURI",
      "outputs": [],
      "stateMutability": "nonpayable",
      "type": "function"
    },
    {
      "inputs": [],
      "name": "getAllOnSale",
      "outputs": [
        {
          "components": [
            {
              "internalType": "uint256",
              "name": "id",
              "type": "uint256"
            },
            {
              "internalType": "uint256",
              "name": "price",
              "type": "uint256"
            },
            {
              "internalType": "string",
              "name": "name",
              "type": "string"
            },
            {
              "internalType": "string",
              "name": "uri",
              "type": "string"
            },
            {
              "internalType": "bool",
              "name": "sale",
              "type": "bool"
            }
          ],
          "internalType": "struct AnkarNFT.TokenMeta[]",
          "name": "",
          "type": "tuple[]"
        }
      ],
      "stateMutability": "view",
      "type": "function"
    },
    {
      "inputs": [
        {
          "internalType": "uint256",
          "name": "_tokenId",
          "type": "uint256"
        },
        {
          "internalType": "bool",
          "name": "_sale",
          "type": "bool"
        },
        {
          "internalType": "uint256",
          "name": "_price",
          "type": "uint256"
        }
      ],
      "name": "setTokenSale",
      "outputs": [],
      "stateMutability": "nonpayable",
      "type": "function"
    },
    {
      "inputs": [
        {
          "internalType": "uint256",
          "name": "_tokenId",
          "type": "uint256"
        },
        {
          "internalType": "uint256",
          "name": "_price",
          "type": "uint256"
        }
      ],
      "name": "setTokenPrice",
      "outputs": [],
      "stateMutability": "nonpayable",
      "type": "function"
    },
    {
      "inputs": [
        {
          "internalType": "uint256",
          "name": "tokenId",
          "type": "uint256"
        }
      ],
      "name": "tokenPrice",
      "outputs": [
        {
          "internalType": "uint256",
          "name": "",
          "type": "uint256"
        }
      ],
      "stateMutability": "view",
      "type": "function"
    },
    {
      "inputs": [
        {
          "internalType": "uint256",
          "name": "_tokenId",
          "type": "uint256"
        }
      ],
      "name": "tokenMeta",
      "outputs": [
        {
          "components": [
            {
              "internalType": "uint256",
              "name": "id",
              "type": "uint256"
            },
            {
              "internalType": "uint256",
              "name": "price",
              "type": "uint256"
            },
            {
              "internalType": "string",
              "name": "name",
              "type": "string"
            },
            {
              "internalType": "string",
              "name": "uri",
              "type": "string"
            },
            {
              "internalType": "bool",
              "name": "sale",
              "type": "bool"
            }
          ],
          "internalType": "struct AnkarNFT.TokenMeta",
          "name": "",
          "type": "tuple"
        }
      ],
      "stateMutability": "view",
      "type": "function"
    },
    {
      "inputs": [
        {
          "internalType": "uint256",
          "name": "_tokenId",
          "type": "uint256"
        }
      ],
      "name": "purchaseToken",
      "outputs": [],
      "stateMutability": "payable",
      "type": "function"
    },
    {
      "inputs": [
        {
          "internalType": "address",
          "name": "_owner",
          "type": "address"
        },
        {
          "internalType": "string",
          "name": "_tokenURI",
          "type": "string"
        },
        {
          "internalType": "string",
          "name": "_name",
          "type": "string"
        },
        {
          "internalType": "uint256",
          "name": "_price",
          "type": "uint256"
        },
        {
          "internalType": "bool",
          "name": "_sale",
          "type": "bool"
        }
      ],
      "name": "mintCollectable",
      "outputs": [
        {
          "internalType": "uint256",
          "name": "",
          "type": "uint256"
        }
      ],
      "stateMutability": "nonpayable",
      "type": "function"
    }
  ],
  "bytecode": "0x608060405234801561001057600080fd5b506147ab806100206000396000f3fe6080604052600436106101665760003560e01c8063715018a6116100d1578063b88d4fde1161008a578063d4ddce8a11610064578063d4ddce8a1461052b578063e985e9c514610568578063eb685c47146105a5578063f2fde38b146105ce57610166565b8063b88d4fde146104a9578063c2db2c42146104d2578063c87b56dd146104ee57610166565b8063715018a6146103d15780638129fc1c146103e85780638da5cb5b146103ff578063908945591461042a57806395d89b4114610455578063a22cb4651461048057610166565b806339b444361161012357806339b444361461029f57806342842e0e146102dc57806355f804b3146103055780636352211e1461032e5780636387ede61461036b57806370a082311461039457610166565b806301ffc9a71461016b57806306fdde03146101a8578063081812fc146101d3578063095ea7b3146102105780630ae7a3101461023957806323b872dd14610276575b600080fd5b34801561017757600080fd5b50610192600480360381019061018d9190613375565b6105f7565b60405161019f9190613fb3565b60405180910390f35b3480156101b457600080fd5b506101bd6106d9565b6040516101ca9190613fce565b60405180910390f35b3480156101df57600080fd5b506101fa60048036038101906101f59190613408565b61076b565b6040516102079190613f2a565b60405180910390f35b34801561021c57600080fd5b5061023760048036038101906102329190613339565b6107f0565b005b34801561024557600080fd5b50610260600480360381019061025b9190613408565b610908565b60405161026d9190614290565b60405180910390f35b34801561028257600080fd5b5061029d6004803603810190610298919061318c565b610a9a565b005b3480156102ab57600080fd5b506102c660048036038101906102c19190613292565b610afa565b6040516102d391906142b2565b60405180910390f35b3480156102e857600080fd5b5061030360048036038101906102fe919061318c565b610bec565b005b34801561031157600080fd5b5061032c600480360381019061032791906133c7565b610c0c565b005b34801561033a57600080fd5b5061035560048036038101906103509190613408565b610ca2565b6040516103629190613f2a565b60405180910390f35b34801561037757600080fd5b50610392600480360381019061038d9190613431565b610d54565b005b3480156103a057600080fd5b506103bb60048036038101906103b69190613127565b610e2d565b6040516103c891906142b2565b60405180910390f35b3480156103dd57600080fd5b506103e6610ee5565b005b3480156103f457600080fd5b506103fd610f6d565b005b34801561040b57600080fd5b506104146110eb565b6040516104219190613f2a565b60405180910390f35b34801561043657600080fd5b5061043f611115565b60405161044c9190613f91565b60405180910390f35b34801561046157600080fd5b5061046a6113d3565b6040516104779190613fce565b60405180910390f35b34801561048c57600080fd5b506104a760048036038101906104a29190613256565b611465565b005b3480156104b557600080fd5b506104d060048036038101906104cb91906131db565b6115e6565b005b6104ec60048036038101906104e79190613408565b611648565b005b3480156104fa57600080fd5b5061051560048036038101906105109190613408565b6117d8565b6040516105229190613fce565b60405180910390f35b34801561053757600080fd5b50610552600480360381019061054d9190613408565b61187f565b60405161055f91906142b2565b60405180910390f35b34801561057457600080fd5b5061058f600480360381019061058a9190613150565b6118e7565b60405161059c9190613fb3565b60405180910390f35b3480156105b157600080fd5b506105cc60048036038101906105c79190613480565b61197b565b005b3480156105da57600080fd5b506105f560048036038101906105f09190613127565b611a29565b005b60007f80ac58cd000000000000000000000000000000000000000000000000000000007bffffffffffffffffffffffffffffffffffffffffffffffffffffffff1916827bffffffffffffffffffffffffffffffffffffffffffffffffffffffff191614806106c257507f5b5e139f000000000000000000000000000000000000000000000000000000007bffffffffffffffffffffffffffffffffffffffffffffffffffffffff1916827bffffffffffffffffffffffffffffffffffffffffffffffffffffffff1916145b806106d257506106d182611b21565b5b9050919050565b6060606580546106e89061455c565b80601f01602080910402602001604051908101604052809291908181526020018280546107149061455c565b80156107615780601f1061073657610100808354040283529160200191610761565b820191906000526020600020905b81548152906001019060200180831161074457829003601f168201915b5050505050905090565b600061077682611b8b565b6107b5576040517f08c379a00000000000000000000000000000000000000000000000000000000081526004016107ac90614170565b60405180910390fd5b6069600083815260200190815260200160002060009054906101000a900473ffffffffffffffffffffffffffffffffffffffff169050919050565b60006107fb82610ca2565b90508073ffffffffffffffffffffffffffffffffffffffff168373ffffffffffffffffffffffffffffffffffffffff16141561086c576040517f08c379a000000000000000000000000000000000000000000000000000000000815260040161086390614210565b60405180910390fd5b8073ffffffffffffffffffffffffffffffffffffffff1661088b611bf7565b73ffffffffffffffffffffffffffffffffffffffff1614806108ba57506108b9816108b4611bf7565b6118e7565b5b6108f9576040517f08c379a00000000000000000000000000000000000000000000000000000000081526004016108f0906140b0565b60405180910390fd5b6109038383611bff565b505050565b610910612f1a565b61091982611b8b565b61092257600080fd5b60fc60008381526020019081526020016000206040518060a001604052908160008201548152602001600182015481526020016002820180546109649061455c565b80601f01602080910402602001604051908101604052809291908181526020018280546109909061455c565b80156109dd5780601f106109b2576101008083540402835291602001916109dd565b820191906000526020600020905b8154815290600101906020018083116109c057829003601f168201915b505050505081526020016003820180546109f69061455c565b80601f0160208091040260200160405190810160405280929190818152602001828054610a229061455c565b8015610a6f5780601f10610a4457610100808354040283529160200191610a6f565b820191906000526020600020905b815481529060010190602001808311610a5257829003601f168201915b505050505081526020016004820160009054906101000a900460ff1615151515815250509050919050565b610aab610aa5611bf7565b82611cb8565b610aea576040517f08c379a0000000000000000000000000000000000000000000000000000000008152600401610ae190614230565b60405180910390fd5b610af5838383611d96565b505050565b6000610b04611bf7565b73ffffffffffffffffffffffffffffffffffffffff16610b226110eb565b73ffffffffffffffffffffffffffffffffffffffff1614610b78576040517f08c379a0000000000000000000000000000000000000000000000000000000008152600401610b6f90614190565b60405180910390fd5b60008311610b8557600080fd5b610b8f60fb611ff2565b6000610b9b60fb612008565b9050610ba78782612016565b60006040518060a001604052808381526020018681526020018781526020018881526020018515158152509050610bde82826121e4565b819250505095945050505050565b610c07838383604051806020016040528060008152506115e6565b505050565b610c14611bf7565b73ffffffffffffffffffffffffffffffffffffffff16610c326110eb565b73ffffffffffffffffffffffffffffffffffffffff1614610c88576040517f08c379a0000000000000000000000000000000000000000000000000000000008152600401610c7f90614190565b60405180910390fd5b8060fd9080519060200190610c9e929190612f4b565b5050565b6000806067600084815260200190815260200160002060009054906101000a900473ffffffffffffffffffffffffffffffffffffffff169050600073ffffffffffffffffffffffffffffffffffffffff168173ffffffffffffffffffffffffffffffffffffffff161415610d4b576040517f08c379a0000000000000000000000000000000000000000000000000000000008152600401610d42906140f0565b60405180910390fd5b80915050919050565b610d5d83611b8b565b610d9c576040517f08c379a0000000000000000000000000000000000000000000000000000000008152600401610d9390614250565b60405180910390fd5b60008111610da957600080fd5b610db1611bf7565b73ffffffffffffffffffffffffffffffffffffffff16610dd084610ca2565b73ffffffffffffffffffffffffffffffffffffffff1614610df057600080fd5b8160fc600085815260200190815260200160002060040160006101000a81548160ff021916908315150217905550610e28838261197b565b505050565b60008073ffffffffffffffffffffffffffffffffffffffff168273ffffffffffffffffffffffffffffffffffffffff161415610e9e576040517f08c379a0000000000000000000000000000000000000000000000000000000008152600401610e95906140d0565b60405180910390fd5b606860008373ffffffffffffffffffffffffffffffffffffffff1673ffffffffffffffffffffffffffffffffffffffff168152602001908152602001600020549050919050565b610eed611bf7565b73ffffffffffffffffffffffffffffffffffffffff16610f0b6110eb565b73ffffffffffffffffffffffffffffffffffffffff1614610f61576040517f08c379a0000000000000000000000000000000000000000000000000000000008152600401610f5890614190565b60405180910390fd5b610f6b60006122c6565b565b600060019054906101000a900460ff1680610f93575060008054906101000a900460ff16155b610fd2576040517f08c379a0000000000000000000000000000000000000000000000000000000008152600401610fc990614110565b60405180910390fd5b60008060019054906101000a900460ff161590508015611022576001600060016101000a81548160ff02191690831515021790555060016000806101000a81548160ff0219169083151502179055505b61102a61238c565b611032612475565b6110a66040518060400160405280600881526020017f476c616d4772616d0000000000000000000000000000000000000000000000008152506040518060400160405280600381526020017f47474d0000000000000000000000000000000000000000000000000000000000815250612556565b6110c760405180608001604052806044815260200161473260449139610c0c565b80156110e85760008060016101000a81548160ff0219169083151502179055505b50565b6000609760009054906101000a900473ffffffffffffffffffffffffffffffffffffffff16905090565b6060600061112360fb612008565b67ffffffffffffffff811115611162577f4e487b7100000000000000000000000000000000000000000000000000000000600052604160045260246000fd5b60405190808252806020026020018201604052801561119b57816020015b611188612f1a565b8152602001906001900390816111805790505b509050600080600190505b60016111b260fb612008565b6111bc91906143eb565b8110156113ca576001151560fc600083815260200190815260200160002060040160009054906101000a900460ff16151514156113b75760fc60008281526020019081526020016000206040518060a001604052908160008201548152602001600182015481526020016002820180546112359061455c565b80601f01602080910402602001604051908101604052809291908181526020018280546112619061455c565b80156112ae5780601f10611283576101008083540402835291602001916112ae565b820191906000526020600020905b81548152906001019060200180831161129157829003601f168201915b505050505081526020016003820180546112c79061455c565b80601f01602080910402602001604051908101604052809291908181526020018280546112f39061455c565b80156113405780601f1061131557610100808354040283529160200191611340565b820191906000526020600020905b81548152906001019060200180831161132357829003601f168201915b505050505081526020016004820160009054906101000a900460ff16151515158152505083838151811061139d577f4e487b7100000000000000000000000000000000000000000000000000000000600052603260045260246000fd5b602002602001018190525081806113b39061458e565b9250505b80806113c29061458e565b9150506111a6565b50819250505090565b6060606680546113e29061455c565b80601f016020809104026020016040519081016040528092919081815260200182805461140e9061455c565b801561145b5780601f106114305761010080835404028352916020019161145b565b820191906000526020600020905b81548152906001019060200180831161143e57829003601f168201915b5050505050905090565b61146d611bf7565b73ffffffffffffffffffffffffffffffffffffffff168273ffffffffffffffffffffffffffffffffffffffff1614156114db576040517f08c379a00000000000000000000000000000000000000000000000000000000081526004016114d290614070565b60405180910390fd5b80606a60006114e8611bf7565b73ffffffffffffffffffffffffffffffffffffffff1673ffffffffffffffffffffffffffffffffffffffff16815260200190815260200160002060008473ffffffffffffffffffffffffffffffffffffffff1673ffffffffffffffffffffffffffffffffffffffff16815260200190815260200160002060006101000a81548160ff0219169083151502179055508173ffffffffffffffffffffffffffffffffffffffff16611595611bf7565b73ffffffffffffffffffffffffffffffffffffffff167f17307eab39ab6107e8899845ad3d59bd9653f200f220920489ca2b5937696c31836040516115da9190613fb3565b60405180910390a35050565b6115f76115f1611bf7565b83611cb8565b611636576040517f08c379a000000000000000000000000000000000000000000000000000000000815260040161162d90614230565b60405180910390fd5b6116428484848461264b565b50505050565b600260c954141561168e576040517f08c379a000000000000000000000000000000000000000000000000000000000815260040161168590614270565b60405180910390fd5b600260c981905550600073ffffffffffffffffffffffffffffffffffffffff163373ffffffffffffffffffffffffffffffffffffffff161415801561170757506116d781610ca2565b73ffffffffffffffffffffffffffffffffffffffff163373ffffffffffffffffffffffffffffffffffffffff1614155b61171057600080fd5b60fc60008281526020019081526020016000206001015434101561173357600080fd5b600061173e82610ca2565b90508073ffffffffffffffffffffffffffffffffffffffff166108fc349081150290604051600060405180830381858888f19350505050158015611786573d6000803e3d6000fd5b50611792816001611465565b61179d813384611d96565b600060fc600084815260200190815260200160002060040160006101000a81548160ff02191690831515021790555050600160c98190555050565b60606117e382611b8b565b611822576040517f08c379a0000000000000000000000000000000000000000000000000000000008152600401611819906141f0565b60405180910390fd5b600061182c6126a7565b9050600081511161184c5760405180602001604052806000815250611877565b8061185684612739565b604051602001611867929190613f06565b6040516020818303038152906040525b915050919050565b600061188a82611b8b565b6118c9576040517f08c379a00000000000000000000000000000000000000000000000000000000081526004016118c090614130565b60405180910390fd5b60fc6000838152602001908152602001600020600101549050919050565b6000606a60008473ffffffffffffffffffffffffffffffffffffffff1673ffffffffffffffffffffffffffffffffffffffff16815260200190815260200160002060008373ffffffffffffffffffffffffffffffffffffffff1673ffffffffffffffffffffffffffffffffffffffff16815260200190815260200160002060009054906101000a900460ff16905092915050565b61198482611b8b565b6119c3576040517f08c379a00000000000000000000000000000000000000000000000000000000081526004016119ba906141b0565b60405180910390fd5b6119cb611bf7565b73ffffffffffffffffffffffffffffffffffffffff166119ea83610ca2565b73ffffffffffffffffffffffffffffffffffffffff1614611a0a57600080fd5b8060fc6000848152602001908152602001600020600101819055505050565b611a31611bf7565b73ffffffffffffffffffffffffffffffffffffffff16611a4f6110eb565b73ffffffffffffffffffffffffffffffffffffffff1614611aa5576040517f08c379a0000000000000000000000000000000000000000000000000000000008152600401611a9c90614190565b60405180910390fd5b600073ffffffffffffffffffffffffffffffffffffffff168173ffffffffffffffffffffffffffffffffffffffff161415611b15576040517f08c379a0000000000000000000000000000000000000000000000000000000008152600401611b0c90614010565b60405180910390fd5b611b1e816122c6565b50565b60007f01ffc9a7000000000000000000000000000000000000000000000000000000007bffffffffffffffffffffffffffffffffffffffffffffffffffffffff1916827bffffffffffffffffffffffffffffffffffffffffffffffffffffffff1916149050919050565b60008073ffffffffffffffffffffffffffffffffffffffff166067600084815260200190815260200160002060009054906101000a900473ffffffffffffffffffffffffffffffffffffffff1673ffffffffffffffffffffffffffffffffffffffff1614159050919050565b600033905090565b816069600083815260200190815260200160002060006101000a81548173ffffffffffffffffffffffffffffffffffffffff021916908373ffffffffffffffffffffffffffffffffffffffff160217905550808273ffffffffffffffffffffffffffffffffffffffff16611c7283610ca2565b73ffffffffffffffffffffffffffffffffffffffff167f8c5be1e5ebec7d5bd14f71427d1e84f3dd0314c0f7b2291e5b200ac8c7c3b92560405160405180910390a45050565b6000611cc382611b8b565b611d02576040517f08c379a0000000000000000000000000000000000000000000000000000000008152600401611cf990614090565b60405180910390fd5b6000611d0d83610ca2565b90508073ffffffffffffffffffffffffffffffffffffffff168473ffffffffffffffffffffffffffffffffffffffff161480611d7c57508373ffffffffffffffffffffffffffffffffffffffff16611d648461076b565b73ffffffffffffffffffffffffffffffffffffffff16145b80611d8d5750611d8c81856118e7565b5b91505092915050565b8273ffffffffffffffffffffffffffffffffffffffff16611db682610ca2565b73ffffffffffffffffffffffffffffffffffffffff1614611e0c576040517f08c379a0000000000000000000000000000000000000000000000000000000008152600401611e03906141d0565b60405180910390fd5b600073ffffffffffffffffffffffffffffffffffffffff168273ffffffffffffffffffffffffffffffffffffffff161415611e7c576040517f08c379a0000000000000000000000000000000000000000000000000000000008152600401611e7390614050565b60405180910390fd5b611e878383836128e6565b611e92600082611bff565b6001606860008573ffffffffffffffffffffffffffffffffffffffff1673ffffffffffffffffffffffffffffffffffffffff1681526020019081526020016000206000828254611ee29190614472565b925050819055506001606860008473ffffffffffffffffffffffffffffffffffffffff1673ffffffffffffffffffffffffffffffffffffffff1681526020019081526020016000206000828254611f3991906143eb565b92505081905550816067600083815260200190815260200160002060006101000a81548173ffffffffffffffffffffffffffffffffffffffff021916908373ffffffffffffffffffffffffffffffffffffffff160217905550808273ffffffffffffffffffffffffffffffffffffffff168473ffffffffffffffffffffffffffffffffffffffff167fddf252ad1be2c89b69c2b068fc378daa952ba7f163c4a11628f55a4df523b3ef60405160405180910390a4505050565b6001816000016000828254019250508190555050565b600081600001549050919050565b600073ffffffffffffffffffffffffffffffffffffffff168273ffffffffffffffffffffffffffffffffffffffff161415612086576040517f08c379a000000000000000000000000000000000000000000000000000000000815260040161207d90614150565b60405180910390fd5b61208f81611b8b565b156120cf576040517f08c379a00000000000000000000000000000000000000000000000000000000081526004016120c690614030565b60405180910390fd5b6120db600083836128e6565b6001606860008473ffffffffffffffffffffffffffffffffffffffff1673ffffffffffffffffffffffffffffffffffffffff168152602001908152602001600020600082825461212b91906143eb565b92505081905550816067600083815260200190815260200160002060006101000a81548173ffffffffffffffffffffffffffffffffffffffff021916908373ffffffffffffffffffffffffffffffffffffffff160217905550808273ffffffffffffffffffffffffffffffffffffffff16600073ffffffffffffffffffffffffffffffffffffffff167fddf252ad1be2c89b69c2b068fc378daa952ba7f163c4a11628f55a4df523b3ef60405160405180910390a45050565b6121ed82611b8b565b6121f657600080fd5b6121fe611bf7565b73ffffffffffffffffffffffffffffffffffffffff1661221d83610ca2565b73ffffffffffffffffffffffffffffffffffffffff161461223d57600080fd5b8060fc600084815260200190815260200160002060008201518160000155602082015181600101556040820151816002019080519060200190612281929190612f4b565b50606082015181600301908051906020019061229e929190612f4b565b5060808201518160040160006101000a81548160ff0219169083151502179055509050505050565b6000609760009054906101000a900473ffffffffffffffffffffffffffffffffffffffff16905081609760006101000a81548173ffffffffffffffffffffffffffffffffffffffff021916908373ffffffffffffffffffffffffffffffffffffffff1602179055508173ffffffffffffffffffffffffffffffffffffffff168173ffffffffffffffffffffffffffffffffffffffff167f8be0079c531659141344cd1fd0a4f28419497f9722a3daafe3b4186f6b6457e060405160405180910390a35050565b600060019054906101000a900460ff16806123b2575060008054906101000a900460ff16155b6123f1576040517f08c379a00000000000000000000000000000000000000000000000000000000081526004016123e890614110565b60405180910390fd5b60008060019054906101000a900460ff161590508015612441576001600060016101000a81548160ff02191690831515021790555060016000806101000a81548160ff0219169083151502179055505b6124496128eb565b6124516129c4565b80156124725760008060016101000a81548160ff0219169083151502179055505b50565b600060019054906101000a900460ff168061249b575060008054906101000a900460ff16155b6124da576040517f08c379a00000000000000000000000000000000000000000000000000000000081526004016124d190614110565b60405180910390fd5b60008060019054906101000a900460ff16159050801561252a576001600060016101000a81548160ff02191690831515021790555060016000806101000a81548160ff0219169083151502179055505b612532612aad565b80156125535760008060016101000a81548160ff0219169083151502179055505b50565b600060019054906101000a900460ff168061257c575060008054906101000a900460ff16155b6125bb576040517f08c379a00000000000000000000000000000000000000000000000000000000081526004016125b290614110565b60405180910390fd5b60008060019054906101000a900460ff16159050801561260b576001600060016101000a81548160ff02191690831515021790555060016000806101000a81548160ff0219169083151502179055505b6126136128eb565b61261b612b8e565b6126258383612c67565b80156126465760008060016101000a81548160ff0219169083151502179055505b505050565b612656848484611d96565b61266284848484612d70565b6126a1576040517f08c379a000000000000000000000000000000000000000000000000000000000815260040161269890613ff0565b60405180910390fd5b50505050565b606060fd80546126b69061455c565b80601f01602080910402602001604051908101604052809291908181526020018280546126e29061455c565b801561272f5780601f106127045761010080835404028352916020019161272f565b820191906000526020600020905b81548152906001019060200180831161271257829003601f168201915b5050505050905090565b60606000821415612781576040518060400160405280600181526020017f300000000000000000000000000000000000000000000000000000000000000081525090506128e1565b600082905060005b600082146127b357808061279c9061458e565b915050600a826127ac9190614441565b9150612789565b60008167ffffffffffffffff8111156127f5577f4e487b7100000000000000000000000000000000000000000000000000000000600052604160045260246000fd5b6040519080825280601f01601f1916602001820160405280156128275781602001600182028036833780820191505090505b5090505b600085146128da576001826128409190614472565b9150600a8561284f91906145d7565b603061285b91906143eb565b60f81b818381518110612897577f4e487b7100000000000000000000000000000000000000000000000000000000600052603260045260246000fd5b60200101907effffffffffffffffffffffffffffffffffffffffffffffffffffffffffffff1916908160001a905350600a856128d39190614441565b945061282b565b8093505050505b919050565b505050565b600060019054906101000a900460ff1680612911575060008054906101000a900460ff16155b612950576040517f08c379a000000000000000000000000000000000000000000000000000000000815260040161294790614110565b60405180910390fd5b60008060019054906101000a900460ff1615905080156129a0576001600060016101000a81548160ff02191690831515021790555060016000806101000a81548160ff0219169083151502179055505b80156129c15760008060016101000a81548160ff0219169083151502179055505b50565b600060019054906101000a900460ff16806129ea575060008054906101000a900460ff16155b612a29576040517f08c379a0000000000000000000000000000000000000000000000000000000008152600401612a2090614110565b60405180910390fd5b60008060019054906101000a900460ff161590508015612a79576001600060016101000a81548160ff02191690831515021790555060016000806101000a81548160ff0219169083151502179055505b612a89612a84611bf7565b6122c6565b8015612aaa5760008060016101000a81548160ff0219169083151502179055505b50565b600060019054906101000a900460ff1680612ad3575060008054906101000a900460ff16155b612b12576040517f08c379a0000000000000000000000000000000000000000000000000000000008152600401612b0990614110565b60405180910390fd5b60008060019054906101000a900460ff161590508015612b62576001600060016101000a81548160ff02191690831515021790555060016000806101000a81548160ff0219169083151502179055505b600160c9819055508015612b8b5760008060016101000a81548160ff0219169083151502179055505b50565b600060019054906101000a900460ff1680612bb4575060008054906101000a900460ff16155b612bf3576040517f08c379a0000000000000000000000000000000000000000000000000000000008152600401612bea90614110565b60405180910390fd5b60008060019054906101000a900460ff161590508015612c43576001600060016101000a81548160ff02191690831515021790555060016000806101000a81548160ff0219169083151502179055505b8015612c645760008060016101000a81548160ff0219169083151502179055505b50565b600060019054906101000a900460ff1680612c8d575060008054906101000a900460ff16155b612ccc576040517f08c379a0000000000000000000000000000000000000000000000000000000008152600401612cc390614110565b60405180910390fd5b60008060019054906101000a900460ff161590508015612d1c576001600060016101000a81548160ff02191690831515021790555060016000806101000a81548160ff0219169083151502179055505b8260659080519060200190612d32929190612f4b565b508160669080519060200190612d49929190612f4b565b508015612d6b5760008060016101000a81548160ff0219169083151502179055505b505050565b6000612d918473ffffffffffffffffffffffffffffffffffffffff16612f07565b15612efa578373ffffffffffffffffffffffffffffffffffffffff1663150b7a02612dba611bf7565b8786866040518563ffffffff1660e01b8152600401612ddc9493929190613f45565b602060405180830381600087803b158015612df657600080fd5b505af1925050508015612e2757506040513d601f19601f82011682018060405250810190612e24919061339e565b60015b612eaa573d8060008114612e57576040519150601f19603f3d011682016040523d82523d6000602084013e612e5c565b606091505b50600081511415612ea2576040517f08c379a0000000000000000000000000000000000000000000000000000000008152600401612e9990613ff0565b60405180910390fd5b805181602001fd5b63150b7a0260e01b7bffffffffffffffffffffffffffffffffffffffffffffffffffffffff1916817bffffffffffffffffffffffffffffffffffffffffffffffffffffffff191614915050612eff565b600190505b949350505050565b600080823b905060008111915050919050565b6040518060a00160405280600081526020016000815260200160608152602001606081526020016000151581525090565b828054612f579061455c565b90600052602060002090601f016020900481019282612f795760008555612fc0565b82601f10612f9257805160ff1916838001178555612fc0565b82800160010185558215612fc0579182015b82811115612fbf578251825591602001919060010190612fa4565b5b509050612fcd9190612fd1565b5090565b5b80821115612fea576000816000905550600101612fd2565b5090565b6000613001612ffc846142fe565b6142cd565b90508281526020810184848401111561301957600080fd5b61302484828561451a565b509392505050565b600061303f61303a8461432e565b6142cd565b90508281526020810184848401111561305757600080fd5b61306284828561451a565b509392505050565b600081359050613079816146d5565b92915050565b60008135905061308e816146ec565b92915050565b6000813590506130a381614703565b92915050565b6000815190506130b881614703565b92915050565b600082601f8301126130cf57600080fd5b81356130df848260208601612fee565b91505092915050565b600082601f8301126130f957600080fd5b813561310984826020860161302c565b91505092915050565b6000813590506131218161471a565b92915050565b60006020828403121561313957600080fd5b60006131478482850161306a565b91505092915050565b6000806040838503121561316357600080fd5b60006131718582860161306a565b92505060206131828582860161306a565b9150509250929050565b6000806000606084860312156131a157600080fd5b60006131af8682870161306a565b93505060206131c08682870161306a565b92505060406131d186828701613112565b9150509250925092565b600080600080608085870312156131f157600080fd5b60006131ff8782880161306a565b94505060206132108782880161306a565b935050604061322187828801613112565b925050606085013567ffffffffffffffff81111561323e57600080fd5b61324a878288016130be565b91505092959194509250565b6000806040838503121561326957600080fd5b60006132778582860161306a565b92505060206132888582860161307f565b9150509250929050565b600080600080600060a086880312156132aa57600080fd5b60006132b88882890161306a565b955050602086013567ffffffffffffffff8111156132d557600080fd5b6132e1888289016130e8565b945050604086013567ffffffffffffffff8111156132fe57600080fd5b61330a888289016130e8565b935050606061331b88828901613112565b925050608061332c8882890161307f565b9150509295509295909350565b6000806040838503121561334c57600080fd5b600061335a8582860161306a565b925050602061336b85828601613112565b9150509250929050565b60006020828403121561338757600080fd5b600061339584828501613094565b91505092915050565b6000602082840312156133b057600080fd5b60006133be848285016130a9565b91505092915050565b6000602082840312156133d957600080fd5b600082013567ffffffffffffffff8111156133f357600080fd5b6133ff848285016130e8565b91505092915050565b60006020828403121561341a57600080fd5b600061342884828501613112565b91505092915050565b60008060006060848603121561344657600080fd5b600061345486828701613112565b93505060206134658682870161307f565b925050604061347686828701613112565b9150509250925092565b6000806040838503121561349357600080fd5b60006134a185828601613112565b92505060206134b285828601613112565b9150509250929050565b60006134c88383613dee565b905092915050565b6134d9816144a6565b82525050565b60006134ea8261436e565b6134f4818561439c565b9350836020820285016135068561435e565b8060005b85811015613542578484038952815161352385826134bc565b945061352e8361438f565b925060208a0199505060018101905061350a565b50829750879550505050505092915050565b61355d816144b8565b82525050565b61356c816144b8565b82525050565b600061357d82614379565b61358781856143ad565b9350613597818560208601614529565b6135a0816146c4565b840191505092915050565b60006135b682614384565b6135c081856143be565b93506135d0818560208601614529565b6135d9816146c4565b840191505092915050565b60006135ef82614384565b6135f981856143cf565b9350613609818560208601614529565b613612816146c4565b840191505092915050565b600061362882614384565b61363281856143e0565b9350613642818560208601614529565b80840191505092915050565b600061365b6032836143cf565b91507f4552433732313a207472616e7366657220746f206e6f6e20455243373231526560008301527f63656976657220696d706c656d656e74657200000000000000000000000000006020830152604082019050919050565b60006136c16026836143cf565b91507f4f776e61626c653a206e6577206f776e657220697320746865207a65726f206160008301527f64647265737300000000000000000000000000000000000000000000000000006020830152604082019050919050565b6000613727601c836143cf565b91507f4552433732313a20746f6b656e20616c7265616479206d696e746564000000006000830152602082019050919050565b60006137676024836143cf565b91507f4552433732313a207472616e7366657220746f20746865207a65726f2061646460008301527f72657373000000000000000000000000000000000000000000000000000000006020830152604082019050919050565b60006137cd6019836143cf565b91507f4552433732313a20617070726f766520746f2063616c6c6572000000000000006000830152602082019050919050565b600061380d602c836143cf565b91507f4552433732313a206f70657261746f7220717565727920666f72206e6f6e657860008301527f697374656e7420746f6b656e00000000000000000000000000000000000000006020830152604082019050919050565b60006138736038836143cf565b91507f4552433732313a20617070726f76652063616c6c6572206973206e6f74206f7760008301527f6e6572206e6f7220617070726f76656420666f7220616c6c00000000000000006020830152604082019050919050565b60006138d9602a836143cf565b91507f4552433732313a2062616c616e636520717565727920666f7220746865207a6560008301527f726f2061646472657373000000000000000000000000000000000000000000006020830152604082019050919050565b600061393f6029836143cf565b91507f4552433732313a206f776e657220717565727920666f72206e6f6e657869737460008301527f656e7420746f6b656e00000000000000000000000000000000000000000000006020830152604082019050919050565b60006139a5602e836143cf565b91507f496e697469616c697a61626c653a20636f6e747261637420697320616c72656160008301527f647920696e697469616c697a65640000000000000000000000000000000000006020830152604082019050919050565b6000613a0b6031836143cf565b91507f4552433732314d657461646174613a20507269636520717565727920666f722060008301527f6e6f6e6578697374656e7420746f6b656e0000000000000000000000000000006020830152604082019050919050565b6000613a716020836143cf565b91507f4552433732313a206d696e7420746f20746865207a65726f20616464726573736000830152602082019050919050565b6000613ab1602c836143cf565b91507f4552433732313a20617070726f76656420717565727920666f72206e6f6e657860008301527f697374656e7420746f6b656e00000000000000000000000000000000000000006020830152604082019050919050565b6000613b176020836143cf565b91507f4f776e61626c653a2063616c6c6572206973206e6f7420746865206f776e65726000830152602082019050919050565b6000613b57602e836143cf565b91507f4552433732314d657461646174613a20507269636520736574206f66206e6f6e60008301527f6578697374656e7420746f6b656e0000000000000000000000000000000000006020830152604082019050919050565b6000613bbd6029836143cf565b91507f4552433732313a207472616e73666572206f6620746f6b656e2074686174206960008301527f73206e6f74206f776e00000000000000000000000000000000000000000000006020830152604082019050919050565b6000613c23602f836143cf565b91507f4552433732314d657461646174613a2055524920717565727920666f72206e6f60008301527f6e6578697374656e7420746f6b656e00000000000000000000000000000000006020830152604082019050919050565b6000613c896021836143cf565b91507f4552433732313a20617070726f76616c20746f2063757272656e74206f776e6560008301527f72000000000000000000000000000000000000000000000000000000000000006020830152604082019050919050565b6000613cef6031836143cf565b91507f4552433732313a207472616e736665722063616c6c6572206973206e6f74206f60008301527f776e6572206e6f7220617070726f7665640000000000000000000000000000006020830152604082019050919050565b6000613d55602d836143cf565b91507f4552433732314d657461646174613a2053616c6520736574206f66206e6f6e6560008301527f78697374656e7420746f6b656e000000000000000000000000000000000000006020830152604082019050919050565b6000613dbb601f836143cf565b91507f5265656e7472616e637947756172643a207265656e7472616e742063616c6c006000830152602082019050919050565b600060a083016000830151613e066000860182613ee8565b506020830151613e196020860182613ee8565b5060408301518482036040860152613e3182826135ab565b91505060608301518482036060860152613e4b82826135ab565b9150506080830151613e606080860182613554565b508091505092915050565b600060a083016000830151613e836000860182613ee8565b506020830151613e966020860182613ee8565b5060408301518482036040860152613eae82826135ab565b91505060608301518482036060860152613ec882826135ab565b9150506080830151613edd6080860182613554565b508091505092915050565b613ef181614510565b82525050565b613f0081614510565b82525050565b6000613f12828561361d565b9150613f1e828461361d565b91508190509392505050565b6000602082019050613f3f60008301846134d0565b92915050565b6000608082019050613f5a60008301876134d0565b613f6760208301866134d0565b613f746040830185613ef7565b8181036060830152613f868184613572565b905095945050505050565b60006020820190508181036000830152613fab81846134df565b905092915050565b6000602082019050613fc86000830184613563565b92915050565b60006020820190508181036000830152613fe881846135e4565b905092915050565b600060208201905081810360008301526140098161364e565b9050919050565b60006020820190508181036000830152614029816136b4565b9050919050565b600060208201905081810360008301526140498161371a565b9050919050565b600060208201905081810360008301526140698161375a565b9050919050565b60006020820190508181036000830152614089816137c0565b9050919050565b600060208201905081810360008301526140a981613800565b9050919050565b600060208201905081810360008301526140c981613866565b9050919050565b600060208201905081810360008301526140e9816138cc565b9050919050565b6000602082019050818103600083015261410981613932565b9050919050565b6000602082019050818103600083015261412981613998565b9050919050565b60006020820190508181036000830152614149816139fe565b9050919050565b6000602082019050818103600083015261416981613a64565b9050919050565b6000602082019050818103600083015261418981613aa4565b9050919050565b600060208201905081810360008301526141a981613b0a565b9050919050565b600060208201905081810360008301526141c981613b4a565b9050919050565b600060208201905081810360008301526141e981613bb0565b9050919050565b6000602082019050818103600083015261420981613c16565b9050919050565b6000602082019050818103600083015261422981613c7c565b9050919050565b6000602082019050818103600083015261424981613ce2565b9050919050565b6000602082019050818103600083015261426981613d48565b9050919050565b6000602082019050818103600083015261428981613dae565b9050919050565b600060208201905081810360008301526142aa8184613e6b565b905092915050565b60006020820190506142c76000830184613ef7565b92915050565b6000604051905081810181811067ffffffffffffffff821117156142f4576142f3614695565b5b8060405250919050565b600067ffffffffffffffff82111561431957614318614695565b5b601f19601f8301169050602081019050919050565b600067ffffffffffffffff82111561434957614348614695565b5b601f19601f8301169050602081019050919050565b6000819050602082019050919050565b600081519050919050565b600081519050919050565b600081519050919050565b6000602082019050919050565b600082825260208201905092915050565b600082825260208201905092915050565b600082825260208201905092915050565b600082825260208201905092915050565b600081905092915050565b60006143f682614510565b915061440183614510565b9250827fffffffffffffffffffffffffffffffffffffffffffffffffffffffffffffffff0382111561443657614435614608565b5b828201905092915050565b600061444c82614510565b915061445783614510565b92508261446757614466614637565b5b828204905092915050565b600061447d82614510565b915061448883614510565b92508282101561449b5761449a614608565b5b828203905092915050565b60006144b1826144f0565b9050919050565b60008115159050919050565b60007fffffffff0000000000000000000000000000000000000000000000000000000082169050919050565b600073ffffffffffffffffffffffffffffffffffffffff82169050919050565b6000819050919050565b82818337600083830152505050565b60005b8381101561454757808201518184015260208101905061452c565b83811115614556576000848401525b50505050565b6000600282049050600182168061457457607f821691505b6020821081141561458857614587614666565b5b50919050565b600061459982614510565b91507fffffffffffffffffffffffffffffffffffffffffffffffffffffffffffffffff8214156145cc576145cb614608565b5b600182019050919050565b60006145e282614510565b91506145ed83614510565b9250826145fd576145fc614637565b5b828206905092915050565b7f4e487b7100000000000000000000000000000000000000000000000000000000600052601160045260246000fd5b7f4e487b7100000000000000000000000000000000000000000000000000000000600052601260045260246000fd5b7f4e487b7100000000000000000000000000000000000000000000000000000000600052602260045260246000fd5b7f4e487b7100000000000000000000000000000000000000000000000000000000600052604160045260246000fd5b6000601f19601f8301169050919050565b6146de816144a6565b81146146e957600080fd5b50565b6146f5816144b8565b811461470057600080fd5b50565b61470c816144c4565b811461471757600080fd5b50565b61472381614510565b811461472e57600080fd5b5056fe68747470733a2f2f726832357132347476662e657865637574652d6170692e65752d776573742d322e616d617a6f6e6177732e636f6d2f6465762f746f6b656e3f69643da26469706673582212205de3083fd51bcf3c20fd1508824ac95b9ec9f81faa63ea6320a6d325253631e064736f6c63430008000033",
  "immutableReferences": {},
  "source": "// SPDX-License-Identifier: MIT\npragma solidity >=0.4.22 <0.9.0;\npragma experimental ABIEncoderV2;\n\nimport \"./ERC721Upgradeable.sol\";\nimport \"./OwnableUpgradeable.sol\";\nimport \"./ReentrancyGuardUpgradeable.sol\";\nimport \"./CountersUpgradeable.sol\";\n\ncontract AnkarNFT is ERC721Upgradeable, OwnableUpgradeable, ReentrancyGuardUpgradeable {\n    using CountersUpgradeable for CountersUpgradeable.Counter;\n    CountersUpgradeable.Counter private _tokenIds;\n\n    mapping (uint256 => TokenMeta) private _tokenMeta;\n\n    string baseURI;\n\n    struct TokenMeta {\n        uint256 id;\n        uint256 price;\n        string name;\n        string uri;\n        bool sale;\n    }\n\n    function initialize() public initializer {\n        OwnableUpgradeable.__Ownable_init();\n        ReentrancyGuardUpgradeable.__ReentrancyGuard_init();\n        ERC721Upgradeable.__ERC721_init(\"GlamGram\", \"GGM\");\n        setBaseURI(\"https://rh25q24tvf.execute-api.eu-west-2.amazonaws.com/dev/token?id=\");\n    }\n\n    /**\n     * @dev Base URI for computing {tokenURI}. Empty by default, can be overriden\n     * in child contracts.\n     */\n    function _baseURI() internal view override virtual returns (string memory) {\n        return baseURI;\n    }\n\n    function setBaseURI(string memory _newBaseURI) public virtual onlyOwner {\n        baseURI = _newBaseURI;\n    }\n\n    function getAllOnSale () public view virtual returns( TokenMeta[] memory ) {\n        TokenMeta[] memory tokensOnSale = new TokenMeta[](_tokenIds.current());\n        uint256 counter = 0;\n\n        for(uint i = 1; i < _tokenIds.current() + 1; i++) {\n            if(_tokenMeta[i].sale == true) {\n                tokensOnSale[counter] = _tokenMeta[i];\n                counter++;\n            }\n        }\n        return tokensOnSale;\n    }\n\n    /**\n     * @dev sets maps token to its price\n     * @param _tokenId uint256 token ID (token number)\n     * @param _sale bool token on sale\n     * @param _price unit256 token price\n     * \n     * Requirements: \n     * `tokenId` must exist\n     * `price` must be more than 0\n     * `owner` must the msg.owner\n     */\n    function setTokenSale(uint256 _tokenId, bool _sale, uint256 _price) public {\n        require(_exists(_tokenId), \"ERC721Metadata: Sale set of nonexistent token\");\n        require(_price > 0);\n        require(ownerOf(_tokenId) == _msgSender());\n\n        _tokenMeta[_tokenId].sale = _sale;\n        setTokenPrice(_tokenId, _price);\n    }\n\n    /**\n     * @dev sets maps token to its price\n     * @param _tokenId uint256 token ID (token number)\n     * @param _price uint256 token price\n     * \n     * Requirements: \n     * `tokenId` must exist\n     * `owner` must the msg.owner\n     */\n    function setTokenPrice(uint256 _tokenId, uint256 _price) public {\n        require(_exists(_tokenId), \"ERC721Metadata: Price set of nonexistent token\");\n        require(ownerOf(_tokenId) == _msgSender());\n        _tokenMeta[_tokenId].price = _price;\n    }\n\n    function tokenPrice(uint256 tokenId) public view virtual returns (uint256) {\n        require(_exists(tokenId), \"ERC721Metadata: Price query for nonexistent token\");\n        return _tokenMeta[tokenId].price;\n    }\n\n    /**\n     * @dev sets token meta\n     * @param _tokenId uint256 token ID (token number)\n     * @param _meta TokenMeta \n     * \n     * Requirements: \n     * `tokenId` must exist\n     * `owner` must the msg.owner\n     */\n    function _setTokenMeta(uint256 _tokenId, TokenMeta memory _meta) private {\n        require(_exists(_tokenId));\n        require(ownerOf(_tokenId) == _msgSender());\n        _tokenMeta[_tokenId] = _meta;\n    }\n\n    function tokenMeta(uint256 _tokenId) public view returns (TokenMeta memory) {\n        require(_exists(_tokenId));\n        return _tokenMeta[_tokenId];\n    }\n\n    /**\n     * @dev purchase _tokenId\n     * @param _tokenId uint256 token ID (token number)\n     */\n    function purchaseToken(uint256 _tokenId) public payable nonReentrant {\n        require(msg.sender != address(0) && msg.sender != ownerOf(_tokenId));\n        require(msg.value >= _tokenMeta[_tokenId].price);\n        address tokenSeller = ownerOf(_tokenId);\n\n        payable(tokenSeller).transfer(msg.value);\n\n        setApprovalForAll(tokenSeller, true);\n        _transfer(tokenSeller, msg.sender, _tokenId);\n        _tokenMeta[_tokenId].sale = false;\n    }\n\n    function mintCollectable(\n        address _owner, \n        string memory _tokenURI, \n        string memory _name, \n        uint256 _price, \n        bool _sale\n    )\n        public\n        onlyOwner\n        returns (uint256)\n    {\n        require(_price > 0);\n\n        _tokenIds.increment();\n\n        uint256 newItemId = _tokenIds.current();\n        _mint(_owner, newItemId);\n\n        TokenMeta memory meta = TokenMeta(newItemId, _price, _name, _tokenURI, _sale);\n        _setTokenMeta(newItemId, meta);\n\n        return newItemId;\n    }\n}\n",
  "sourcePath": "/Users/gokulalex/Applications/NoviNet/contracts/AnkarNFT.sol",
  "compiler": {
    "name": "solc",
    "version": "0.8.0+commit.c7dfd78e.Emscripten.clang"
  },
  "schemaVersion": "3.4.3",
  "updatedAt": "2021-10-19T16:41:34.161Z",
  "devdoc": {
    "kind": "dev",
    "methods": {
      "approve(address,uint256)": {
        "details": "See {IERC721-approve}."
      },
      "balanceOf(address)": {
        "details": "See {IERC721-balanceOf}."
      },
      "getApproved(uint256)": {
        "details": "See {IERC721-getApproved}."
      },
      "isApprovedForAll(address,address)": {
        "details": "See {IERC721-isApprovedForAll}."
      },
      "name()": {
        "details": "See {IERC721Metadata-name}."
      },
      "owner()": {
        "details": "Returns the address of the current owner."
      },
      "ownerOf(uint256)": {
        "details": "See {IERC721-ownerOf}."
      },
      "purchaseToken(uint256)": {
        "details": "purchase _tokenId",
        "params": {
          "_tokenId": "uint256 token ID (token number)"
        }
      },
      "renounceOwnership()": {
        "details": "Leaves the contract without owner. It will not be possible to call `onlyOwner` functions anymore. Can only be called by the current owner. NOTE: Renouncing ownership will leave the contract without an owner, thereby removing any functionality that is only available to the owner."
      },
      "safeTransferFrom(address,address,uint256)": {
        "details": "See {IERC721-safeTransferFrom}."
      },
      "safeTransferFrom(address,address,uint256,bytes)": {
        "details": "See {IERC721-safeTransferFrom}."
      },
      "setApprovalForAll(address,bool)": {
        "details": "See {IERC721-setApprovalForAll}."
      },
      "setTokenPrice(uint256,uint256)": {
        "details": "sets maps token to its price",
        "params": {
          "_price": "uint256 token price  Requirements:  `tokenId` must exist `owner` must the msg.owner",
          "_tokenId": "uint256 token ID (token number)"
        }
      },
      "setTokenSale(uint256,bool,uint256)": {
        "details": "sets maps token to its price",
        "params": {
          "_price": "unit256 token price  Requirements:  `tokenId` must exist `price` must be more than 0 `owner` must the msg.owner",
          "_sale": "bool token on sale",
          "_tokenId": "uint256 token ID (token number)"
        }
      },
      "supportsInterface(bytes4)": {
        "details": "See {IERC165-supportsInterface}."
      },
      "symbol()": {
        "details": "See {IERC721Metadata-symbol}."
      },
      "tokenURI(uint256)": {
        "details": "See {IERC721Metadata-tokenURI}."
      },
      "transferFrom(address,address,uint256)": {
        "details": "See {IERC721-transferFrom}."
      },
      "transferOwnership(address)": {
        "details": "Transfers ownership of the contract to a new account (`newOwner`). Can only be called by the current owner."
      }
    },
    "version": 1
  },
  "userdoc": {
    "kind": "user",
    "methods": {},
    "version": 1
  }
}